{
  "_format": "hh-sol-artifact-1",
  "contractName": "TransparentUpgradeableProxy.ovm",
  "sourceName": "contracts/upgrades/TransparentUpgradeableProxy.sol",
  "abi": [
    {
      "inputs": [
        {
          "internalType": "address",
          "name": "_logic",
          "type": "address"
        },
        {
          "internalType": "address",
          "name": "admin_",
          "type": "address"
        },
        {
          "internalType": "bytes",
          "name": "_data",
          "type": "bytes"
        }
      ],
      "stateMutability": "payable",
      "type": "constructor"
    },
    {
      "anonymous": false,
      "inputs": [
        {
          "indexed": false,
          "internalType": "address",
          "name": "previousAdmin",
          "type": "address"
        },
        {
          "indexed": false,
          "internalType": "address",
          "name": "newAdmin",
          "type": "address"
        }
      ],
      "name": "AdminChanged",
      "type": "event"
    },
    {
      "anonymous": false,
      "inputs": [
        {
          "indexed": true,
          "internalType": "address",
          "name": "implementation",
          "type": "address"
        }
      ],
      "name": "Upgraded",
      "type": "event"
    },
    {
      "stateMutability": "payable",
      "type": "fallback"
    },
    {
      "inputs": [],
      "name": "admin",
      "outputs": [
        {
          "internalType": "address",
          "name": "admin_",
          "type": "address"
        }
      ],
      "stateMutability": "nonpayable",
      "type": "function"
    },
    {
      "inputs": [
        {
          "internalType": "address",
          "name": "newAdmin",
          "type": "address"
        }
      ],
      "name": "changeAdmin",
      "outputs": [],
      "stateMutability": "nonpayable",
      "type": "function"
    },
    {
      "inputs": [],
      "name": "implementation",
      "outputs": [
        {
          "internalType": "address",
          "name": "implementation_",
          "type": "address"
        }
      ],
      "stateMutability": "nonpayable",
      "type": "function"
    },
    {
      "inputs": [
        {
          "internalType": "address",
          "name": "newImplementation",
          "type": "address"
        }
      ],
      "name": "upgradeTo",
      "outputs": [],
      "stateMutability": "nonpayable",
      "type": "function"
    },
    {
      "inputs": [
        {
          "internalType": "address",
          "name": "newImplementation",
          "type": "address"
        },
        {
          "internalType": "bytes",
          "name": "data",
          "type": "bytes"
        }
      ],
      "name": "upgradeToAndCall",
      "outputs": [],
      "stateMutability": "payable",
      "type": "function"
    },
    {
      "stateMutability": "payable",
      "type": "receive"
    }
  ],
  "bytecode": "0x6080604052604051620017303803806200173083398181016040526060811015620000345760008062000031620005b3565b50505b81019080805190602001909291908051906020019092919080516040519392919084640100000000821115620000745760008062000071620005b3565b50505b83820191506020820185811115620000965760008062000093620005b3565b50505b8251866001820283011164010000000082111715620000bf57600080620000bc620005b3565b50505b8083526020830192505050908051906020019080838360005b83811015620000f5578082015181840152602081019050620000d8565b50505050905090810190601f168015620001235780820380516001836020036101000a031916815260200191505b50604052505050828160017f360894a13ba1a3210667c828492db98dca3e2076cc3735a920a3ca505d382bbd60001c0360001b7f360894a13ba1a3210667c828492db98dca3e2076cc3735a920a3ca505d382bbc60001b146200018257fe5b62000193826200022960201b60201c565b600081511115620001b757620001b58282620002db60201b620005c11760201c565b505b505060017fb53127684a568b3173ae13b9f8a6016e243e63b6e8ee1178d6a717850b5d610460001c0360001b7fb53127684a568b3173ae13b9f8a6016e243e63b6e8ee1178d6a717850b5d610360001b146200020f57fe5b62000220826200031160201b60201c565b505050620007fa565b6200023f816200034b60201b620005ee1760201c565b620002a1576040517f08c379a0000000000000000000000000000000000000000000000000000000008152600401808060200182810382526036815260200180620016d460369139604001915050604051809103906200029e620005b3565b50505b60007f360894a13ba1a3210667c828492db98dca3e2076cc3735a920a3ca505d382bbc60001b90508181620002d562000623565b50505050565b6060620003098383604051806060016040528060278152602001620016ad602791396200036760201b60201c565b905092915050565b60007fb53127684a568b3173ae13b9f8a6016e243e63b6e8ee1178d6a717850b5d610360001b905081816200034562000623565b50505050565b60008082620003596200068a565b905060008111915050919050565b60606200037a846200034b60201b60201c565b620003dc576040517f08c379a00000000000000000000000000000000000000000000000000000000081526004018080602001828103825260268152602001806200170a6026913960400191505060405180910390620003d9620005b3565b50505b6000808573ffffffffffffffffffffffffffffffffffffffff16856040518082805190602001908083835b602083106200042c578051825260208201915060208101905060208303925062000407565b6001836020036101000a038019825116818451168082178552505050505050905001915050600060405180830381855a62000466620006ef565b50505050509150503d80600081146200049c576040519150601f19603f3d011682016040523d82523d6000602084013e620004a1565b606091505b5091509150620004b9828286620004c460201b60201c565b925050509392505050565b60608315620004d657829050620005ac565b600083511115620004fb5782518084602001620004f2620005b3565b505050620005ab565b816040517f08c379a00000000000000000000000000000000000000000000000000000000081526004018080602001828103825283818151815260200191508051906020019080838360005b838110156200056457808201518184015260208101905062000547565b50505050905090810190601f168015620005925780820380516001836020036101000a031916815260200191505b509250505060405180910390620005a8620005b3565b50505b5b9392505050565b632a2a7adb598160e01b8152600481016020815285602082015260005b86811015620005f0578086015181604084010152602081019050620005d0565b506020828760640184336000905af158600e01573d6000803e3d6000fd5b3d6001141558600a015760016000f35b505050565b6322bd64c0598160e01b8152836004820152846024820152600081604483336000905af158600e01573d6000803e3d6000fd5b3d6001141558600a015760016000f35b60005b6040811015620006855760008183015260208101905062000669565b505050565b638435035b598160e01b8152836004820152602081602483336000905af158600e01573d6000803e3d6000fd5b3d6001141558600a015760016000f35b8051935060005b6040811015620006ea57600081830152602081019050620006ce565b505050565b63ffe73914598160e01b815262000731565b60008190508183111562000713578290505b92915050565b6000819050818310156200072b578290505b92915050565b836004820152846024820152606060448201528660648201526084810160005b888110156200076e57808801518183015260208101905062000751565b506060828960a40184336000905af158600e01573d6000803e3d6000fd5b3d6001141558600a015760016000f35b815160408301513d6000853e8b8b82606087013350600060045af15059620007c58d3d62000719565b8c01620007d3818762000701565b5b82811015620007ed5760008152602081019050620007d4565b50839d5050505050505050565b610ea3806200080a6000396000f3fe60806040526004361061004e5760003560e01c80633659cfe6146100675780634f1ef286146100ca5780635c60da1b146101875780638f283970146101d1578063f851a440146102345761005d565b3661005d5761005b61027e565b005b61006561027e565b005b34801561007c57600080610079610aad565b50505b506100c86004803603602081101561009c57600080610099610aad565b50505b81019080803573ffffffffffffffffffffffffffffffffffffffff169060200190929190505050610298565b005b610185600480360360408110156100e9576000806100e6610aad565b50505b81019080803573ffffffffffffffffffffffffffffffffffffffff1690602001909291908035906020019064010000000081111561012f5760008061012c610aad565b50505b82018360208201111561014a57600080610147610aad565b50505b8035906020019184600183028401116401000000008311171561017557600080610172610aad565b50505b90919293919293905050506102f5565b005b34801561019c57600080610199610aad565b50505b506101a56103a3565b604051808273ffffffffffffffffffffffffffffffffffffffff16815260200191505060405180910390f35b3480156101e6576000806101e3610aad565b50505b506102326004803603602081101561020657600080610203610aad565b50505b81019080803573ffffffffffffffffffffffffffffffffffffffff169060200190929190505050610403565b005b34801561024957600080610246610aad565b50505b50610252610561565b604051808273ffffffffffffffffffffffffffffffffffffffff16815260200191505060405180910390f35b610286610608565b6102966102916106af565b6106e7565b565b6102a0610726565b73ffffffffffffffffffffffffffffffffffffffff165a6102bf610b1b565b73ffffffffffffffffffffffffffffffffffffffff1614156102e9576102e48161075e565b6102f2565b6102f161027e565b5b50565b6102fd610726565b73ffffffffffffffffffffffffffffffffffffffff165a61031c610b1b565b73ffffffffffffffffffffffffffffffffffffffff161415610395576103418361075e565b61038f8383838080601f016020809104026020016040519081016040528093929190818152602001838380828437600081840152601f19601f820116905080830192505050505050506105c1565b5061039e565b61039d61027e565b5b505050565b60006103ad610726565b73ffffffffffffffffffffffffffffffffffffffff165a6103cc610b1b565b73ffffffffffffffffffffffffffffffffffffffff1614156103f7576103f06106af565b9050610400565b6103ff61027e565b5b90565b61040b610726565b73ffffffffffffffffffffffffffffffffffffffff165a61042a610b1b565b73ffffffffffffffffffffffffffffffffffffffff16141561055557600073ffffffffffffffffffffffffffffffffffffffff168173ffffffffffffffffffffffffffffffffffffffff1614156104d5576040517f08c379a000000000000000000000000000000000000000000000000000000000815260040180806020018281038252603a815260200180610da4603a9139604001915050604051809103906104d2610aad565b50505b7f7e644d79422f17c01e4894b5f4f588d331ebfa28653d42ae832dc59e38c9798f6104fe610726565b82604051808373ffffffffffffffffffffffffffffffffffffffff1681526020018273ffffffffffffffffffffffffffffffffffffffff1681526020019250505060405180910390a1610550816107ad565b61055e565b61055d61027e565b5b50565b600061056b610726565b73ffffffffffffffffffffffffffffffffffffffff165a61058a610b1b565b73ffffffffffffffffffffffffffffffffffffffff1614156105b5576105ae610726565b90506105be565b6105bd61027e565b5b90565b60606105e68383604051806060016040528060278152602001610dde602791396107e5565b905092915050565b600080826105fa610b78565b905060008111915050919050565b610610610726565b73ffffffffffffffffffffffffffffffffffffffff165a61062f610b1b565b73ffffffffffffffffffffffffffffffffffffffff1614156106a5576040517f08c379a0000000000000000000000000000000000000000000000000000000008152600401808060200182810382526042815260200180610e6160429139606001915050604051809103906106a2610aad565b50505b6106ad610928565b565b6000807f360894a13ba1a3210667c828492db98dca3e2076cc3735a920a3ca505d382bbc60001b9050806106e1610bdb565b91505090565b3660008037600080366000845a6106fc610c3e565b50505050503d6000803e8060008114610714573d6000f35b3d600061071f610aad565b5050505050565b6000807fb53127684a568b3173ae13b9f8a6016e243e63b6e8ee1178d6a717850b5d610360001b905080610758610bdb565b91505090565b6107678161092a565b8073ffffffffffffffffffffffffffffffffffffffff167fbc7cd75a20ee27fd9adebab32041f755214dbc6bffa90cc0225b39da2e5c2d3b60405160405180910390a250565b60007fb53127684a568b3173ae13b9f8a6016e243e63b6e8ee1178d6a717850b5d610360001b905081816107df610d3e565b50505050565b60606107f0846105ee565b61084e576040517f08c379a0000000000000000000000000000000000000000000000000000000008152600401808060200182810382526026815260200180610e3b602691396040019150506040518091039061084b610aad565b50505b6000808573ffffffffffffffffffffffffffffffffffffffff16856040518082805190602001908083835b6020831061089c5780518252602082019150602081019050602083039250610879565b6001836020036101000a038019825116818451168082178552505050505050905001915050600060405180830381855a6108d4610c3e565b50505050509150503d8060008114610908576040519150601f19603f3d011682016040523d82523d6000602084013e61090d565b606091505b509150915061091d8282866109c9565b925050509392505050565b565b610933816105ee565b610991576040517f08c379a0000000000000000000000000000000000000000000000000000000008152600401808060200182810382526036815260200180610e05603691396040019150506040518091039061098e610aad565b50505b60007f360894a13ba1a3210667c828492db98dca3e2076cc3735a920a3ca505d382bbc60001b905081816109c3610d3e565b50505050565b606083156109d957829050610aa6565b6000835111156109fa57825180846020016109f2610aad565b505050610aa5565b816040517f08c379a00000000000000000000000000000000000000000000000000000000081526004018080602001828103825283818151815260200191508051906020019080838360005b83811015610a61578082015181840152602081019050610a46565b50505050905090810190601f168015610a8e5780820380516001836020036101000a031916815260200191505b509250505060405180910390610aa2610aad565b50505b5b9392505050565b632a2a7adb598160e01b8152600481016020815285602082015260005b86811015610ae8578086015181604084010152602081019050610aca565b506020828760640184336000905af158600e01573d6000803e3d6000fd5b3d6001141558600a015760016000f35b505050565b6373509064598160e01b8152602081600483336000905af158600e01573d6000803e3d6000fd5b3d6001141558600a015760016000f35b8051935060005b6040811015610b7357600081830152602081019050610b59565b505050565b638435035b598160e01b8152836004820152602081602483336000905af158600e01573d6000803e3d6000fd5b3d6001141558600a015760016000f35b8051935060005b6040811015610bd657600081830152602081019050610bbc565b505050565b6303daa959598160e01b8152836004820152602081602483336000905af158600e01573d6000803e3d6000fd5b3d6001141558600a015760016000f35b8051935060005b6040811015610c3957600081830152602081019050610c1f565b505050565b63ffe73914598160e01b8152610c7d565b600081905081831115610c60578290505b92915050565b600081905081831015610c77578290505b92915050565b836004820152846024820152606060448201528660648201526084810160005b88811015610cb8578088015181830152602081019050610c9d565b506060828960a40184336000905af158600e01573d6000803e3d6000fd5b3d6001141558600a015760016000f35b815160408301513d6000853e8b8b82606087013350600060045af15059610d0d8d3d610c66565b8c01610d198187610c4f565b5b82811015610d315760008152602081019050610d1a565b50839d5050505050505050565b6322bd64c0598160e01b8152836004820152846024820152600081604483336000905af158600e01573d6000803e3d6000fd5b3d6001141558600a015760016000f35b60005b6040811015610d9e57600081830152602081019050610d84565b50505056fe5472616e73706172656e745570677261646561626c6550726f78793a206e65772061646d696e20697320746865207a65726f2061646472657373416464726573733a206c6f772d6c6576656c2064656c65676174652063616c6c206661696c65645570677261646561626c6550726f78793a206e657720696d706c656d656e746174696f6e206973206e6f74206120636f6e7472616374416464726573733a2064656c65676174652063616c6c20746f206e6f6e2d636f6e74726163745472616e73706172656e745570677261646561626c6550726f78793a2061646d696e2063616e6e6f742066616c6c6261636b20746f2070726f787920746172676574416464726573733a206c6f772d6c6576656c2064656c65676174652063616c6c206661696c65645570677261646561626c6550726f78793a206e657720696d706c656d656e746174696f6e206973206e6f74206120636f6e7472616374416464726573733a2064656c65676174652063616c6c20746f206e6f6e2d636f6e7472616374",
  "linkReferences": {},
  "deployedLinkReferences": {}
}